{
  "contractName": "DeedImplementation",
  "abi": [
    {
      "inputs": [
        {
          "name": "initialOwner",
          "type": "address"
        }
      ],
      "payable": true,
      "stateMutability": "payable",
      "type": "constructor"
    },
    {
      "anonymous": false,
      "inputs": [
        {
          "indexed": false,
          "name": "newOwner",
          "type": "address"
        }
      ],
      "name": "OwnerChanged",
      "type": "event"
    },
    {
      "anonymous": false,
      "inputs": [],
      "name": "DeedClosed",
      "type": "event"
    },
    {
      "constant": false,
      "inputs": [
        {
          "name": "newOwner",
          "type": "address"
        }
      ],
      "name": "setOwner",
      "outputs": [],
      "payable": false,
      "stateMutability": "nonpayable",
      "type": "function"
    },
    {
      "constant": false,
      "inputs": [
        {
          "name": "newRegistrar",
          "type": "address"
        }
      ],
      "name": "setRegistrar",
      "outputs": [],
      "payable": false,
      "stateMutability": "nonpayable",
      "type": "function"
    },
    {
      "constant": false,
      "inputs": [
        {
          "name": "newValue",
          "type": "uint256"
        },
        {
          "name": "throwOnFailure",
          "type": "bool"
        }
      ],
      "name": "setBalance",
      "outputs": [],
      "payable": false,
      "stateMutability": "nonpayable",
      "type": "function"
    },
    {
      "constant": false,
      "inputs": [
        {
          "name": "refundRatio",
          "type": "uint256"
        }
      ],
      "name": "closeDeed",
      "outputs": [],
      "payable": false,
      "stateMutability": "nonpayable",
      "type": "function"
    },
    {
      "constant": false,
      "inputs": [],
      "name": "destroyDeed",
      "outputs": [],
      "payable": false,
      "stateMutability": "nonpayable",
      "type": "function"
    },
    {
      "constant": true,
      "inputs": [],
      "name": "owner",
      "outputs": [
        {
          "name": "",
          "type": "address"
        }
      ],
      "payable": false,
      "stateMutability": "view",
      "type": "function"
    },
    {
      "constant": true,
      "inputs": [],
      "name": "previousOwner",
      "outputs": [
        {
          "name": "",
          "type": "address"
        }
      ],
      "payable": false,
      "stateMutability": "view",
      "type": "function"
    },
    {
      "constant": true,
      "inputs": [],
      "name": "value",
      "outputs": [
        {
          "name": "",
          "type": "uint256"
        }
      ],
      "payable": false,
      "stateMutability": "view",
      "type": "function"
    },
    {
      "constant": true,
      "inputs": [],
      "name": "creationDate",
      "outputs": [
        {
          "name": "",
          "type": "uint256"
        }
      ],
      "payable": false,
      "stateMutability": "view",
      "type": "function"
    }
  ],
  "bytecode": "0x60806040526040516109123803806109128339818101604052602081101561002657600080fd5b8101908080519060200190929190505050806000806101000a81548173ffffffffffffffffffffffffffffffffffffffff021916908373ffffffffffffffffffffffffffffffffffffffff16021790555033600260006101000a81548173ffffffffffffffffffffffffffffffffffffffff021916908373ffffffffffffffffffffffffffffffffffffffff160217905550426003819055506001600560006101000a81548160ff0219169083151502179055503460048190555050610821806100f16000396000f3fe608060405234801561001057600080fd5b50600436106100935760003560e01c8063674f220f11610066578063674f220f146101225780638da5cb5b1461016c578063b0c80972146101b6578063bbe42771146101f0578063faab9d391461021e57610093565b806305b34410146100985780630b5ab3d5146100b657806313af4035146100c05780633fa4f24514610104575b600080fd5b6100a0610262565b6040518082815260200191505060405180910390f35b6100be610267565b005b610102600480360360208110156100d657600080fd5b81019080803573ffffffffffffffffffffffffffffffffffffffff169060200190929190505050610271565b005b61010c61040d565b6040518082815260200191505060405180910390f35b61012a610417565b604051808273ffffffffffffffffffffffffffffffffffffffff1673ffffffffffffffffffffffffffffffffffffffff16815260200191505060405180910390f35b610174610441565b604051808273ffffffffffffffffffffffffffffffffffffffff1673ffffffffffffffffffffffffffffffffffffffff16815260200191505060405180910390f35b6101ee600480360360408110156101cc57600080fd5b810190808035906020019092919080351515906020019092919050505061046a565b005b61021c6004803603602081101561020657600080fd5b8101908080359060200190929190505050610578565b005b6102606004803603602081101561023457600080fd5b81019080803573ffffffffffffffffffffffffffffffffffffffff1690602001909291905050506106a5565b005b600090565b61026f610743565b565b600260009054906101000a900473ffffffffffffffffffffffffffffffffffffffff1673ffffffffffffffffffffffffffffffffffffffff163373ffffffffffffffffffffffffffffffffffffffff16146102cb57600080fd5b600073ffffffffffffffffffffffffffffffffffffffff168173ffffffffffffffffffffffffffffffffffffffff16141561030557600080fd5b6000809054906101000a900473ffffffffffffffffffffffffffffffffffffffff16600160006101000a81548173ffffffffffffffffffffffffffffffffffffffff021916908373ffffffffffffffffffffffffffffffffffffffff160217905550806000806101000a81548173ffffffffffffffffffffffffffffffffffffffff021916908373ffffffffffffffffffffffffffffffffffffffff1602179055507fa2ea9883a321a3e97b8266c2b078bfeec6d50c711ed71f874a90d500ae2eaf3681604051808273ffffffffffffffffffffffffffffffffffffffff1673ffffffffffffffffffffffffffffffffffffffff16815260200191505060405180910390a150565b6000600454905090565b6000600160009054906101000a900473ffffffffffffffffffffffffffffffffffffffff16905090565b60008060009054906101000a900473ffffffffffffffffffffffffffffffffffffffff16905090565b600260009054906101000a900473ffffffffffffffffffffffffffffffffffffffff1673ffffffffffffffffffffffffffffffffffffffff163373ffffffffffffffffffffffffffffffffffffffff16146104c457600080fd5b600560009054906101000a900460ff166104dd57600080fd5b8160045410156104ec57600080fd5b816004819055506000809054906101000a900473ffffffffffffffffffffffffffffffffffffffff1673ffffffffffffffffffffffffffffffffffffffff166108fc833073ffffffffffffffffffffffffffffffffffffffff1631039081150290604051600060405180830381858888f193505050508061056b575080155b61057457600080fd5b5050565b600260009054906101000a900473ffffffffffffffffffffffffffffffffffffffff1673ffffffffffffffffffffffffffffffffffffffff163373ffffffffffffffffffffffffffffffffffffffff16146105d257600080fd5b600560009054906101000a900460ff166105eb57600080fd5b6000600560006101000a81548160ff02191690831515021790555061dead73ffffffffffffffffffffffffffffffffffffffff166108fc6103e83073ffffffffffffffffffffffffffffffffffffffff1631846103e803028161064a57fe5b049081150290604051600060405180830381858888f1935050505061066e57600080fd5b7fbb2ce2f51803bba16bc85282b47deeea9a5c6223eabea1077be696b3f265cf1360405160405180910390a16106a2610743565b50565b600260009054906101000a900473ffffffffffffffffffffffffffffffffffffffff1673ffffffffffffffffffffffffffffffffffffffff163373ffffffffffffffffffffffffffffffffffffffff16146106ff57600080fd5b80600260006101000a81548173ffffffffffffffffffffffffffffffffffffffff021916908373ffffffffffffffffffffffffffffffffffffffff16021790555050565b600560009054906101000a900460ff161561075d57600080fd5b6000809054906101000a900473ffffffffffffffffffffffffffffffffffffffff1673ffffffffffffffffffffffffffffffffffffffff166108fc3073ffffffffffffffffffffffffffffffffffffffff16319081150290604051600060405180830381858888f19350505050156107ea5761dead73ffffffffffffffffffffffffffffffffffffffff16ff5b56fea265627a7a723058201435050b53f8dcdd8fee3f77900971d70e9af94d62f7abe6a5029030959ae35364736f6c634300050a0032",
  "source": "pragma solidity ^0.5.0;\n\nimport \"./Deed.sol\";\n\n/**\n * @title Deed to hold ether in exchange for ownership of a node\n * @dev The deed can be controlled only by the registrar and can only send ether back to the owner.\n */\ncontract DeedImplementation is Deed {\n\n    address payable constant burn = address(0xdead);\n\n    address payable private _owner;\n    address private _previousOwner;\n    address private _registrar;\n\n    uint private _creationDate;\n    uint private _value;\n\n    bool active;\n\n    event OwnerChanged(address newOwner);\n    event DeedClosed();\n\n    modifier onlyRegistrar {\n        require(msg.sender == _registrar);\n        _;\n    }\n\n    modifier onlyActive {\n        require(active);\n        _;\n    }\n\n    constructor(address payable initialOwner) public payable {\n        _owner = initialOwner;\n        _registrar = msg.sender;\n        _creationDate = now;\n        active = true;\n        _value = msg.value;\n    }\n\n    function setOwner(address payable newOwner) external onlyRegistrar {\n        require(newOwner != address(0x0));\n        _previousOwner = _owner;  // This allows contracts to check who sent them the ownership\n        _owner = newOwner;\n        emit OwnerChanged(newOwner);\n    }\n\n    function setRegistrar(address newRegistrar) external onlyRegistrar {\n        _registrar = newRegistrar;\n    }\n\n    function setBalance(uint newValue, bool throwOnFailure) external onlyRegistrar onlyActive {\n        // Check if it has enough balance to set the value\n        require(_value >= newValue);\n        _value = newValue;\n        // Send the difference to the owner\n        require(_owner.send(address(this).balance - newValue) || !throwOnFailure);\n    }\n\n    /**\n     * @dev Close a deed and refund a specified fraction of the bid value\n     *\n     * @param refundRatio The amount*1/1000 to refund\n     */\n    function closeDeed(uint refundRatio) external onlyRegistrar onlyActive {\n        active = false;\n        require(burn.send(((1000 - refundRatio) * address(this).balance)/1000));\n        emit DeedClosed();\n        _destroyDeed();\n    }\n\n    /**\n     * @dev Close a deed and refund a specified fraction of the bid value\n     */\n    function destroyDeed() external {\n        _destroyDeed();\n    }\n\n    function owner() external view returns (address) {\n        return _owner;\n    }\n\n    function previousOwner() external view returns (address) {\n        return _previousOwner;\n    }\n\n    function value() external view returns (uint) {\n        return _value;\n    }\n\n    function creationDate() external view returns (uint) {\n        _creationDate;\n    }\n\n    function _destroyDeed() internal {\n        require(!active);\n\n        // Instead of selfdestruct(owner), invoke owner fallback function to allow\n        // owner to log an event if desired; but owner should also be aware that\n        // its fallback function can also be invoked by setBalance\n        if (_owner.send(address(this).balance)) {\n            selfdestruct(burn);\n        }\n    }\n}\n",
  "sourcePath": "/var/folders/w8/9nyrlhw90zgb_cyhtnz5gzhc0000gn/T/tmp-7119JuFuTEQyBr96/contracts/DeedImplementation.sol",
  "compiler": {
    "name": "solc",
    "version": "0.5.10+commit.5a6ea5b1.Emscripten.clang"
  },
  "schemaVersion": "3.0.19",
  "updatedAt": "2020-01-23T10:11:38.807Z",
  "devdoc": {
    "details": "The deed can be controlled only by the registrar and can only send ether back to the owner.",
    "methods": {
      "closeDeed(uint256)": {
        "details": "Close a deed and refund a specified fraction of the bid value",
        "params": {
          "refundRatio": "The amount*1/1000 to refund"
        }
      },
      "destroyDeed()": {
        "details": "Close a deed and refund a specified fraction of the bid value"
      }
    },
    "title": "Deed to hold ether in exchange for ownership of a node"
  },
  "userdoc": {
    "methods": {}
  }
}